:100000000C9440040C94A92C0C945D040C945D0495
:100010000C945D040C945D040C945D040C945D04DC
:100020000C945D040C945D040C94E62A0C94BE2B95
:100030000C949B2A0C945D040C945D040C945D0458
:100040000C945D040C945D040C945D040C945D04AC
:100050000C945D040C94C22A0C945D040C945D0411
:100060000C945D040C945D040C945D040C945D048C
:100070000C945D040C945D040C945D040C945D047C
:100080000C945D040C945D040C945D040C945D046C
:100090000C945D040C945D040C945D040C945D045C
:1000A0000C945D040C945D040C945D04050109023C
:1000B000A10185020901A1000509190129081500FE
:1000C0002501950875018102050109300931158165
:1000D000257F95027508810609381581257F9501D0
:1000E00075088106050C0A38021581257F95017572
:1000F000088106C0C005010980A101850319012AF4
:10010000B700150126B700950175108100C0050CD8
:100110000901A101850419012AA002150126A002E6
:10012000950175108100C00660FF0961A101096297
:10013000150026FF00952075088102096315002629
:10014000FF00952075089102C005010906A101056F
:100150000719E029E7150025019508750181029529
:1001600001750881010507190029FF150026FF0008
:100170009506750881000508190129051500250156
:10018000950575019102950175039101C00000006C
:10019000000000000000000000000000000000005F
:1001A000000000000000000000000000000000004F
:1001B000007E0F00D4FFFFFFC700000078000000A2
:1001C00000000000002A2B280000000000000000B2
:1001D000000000000000000029000000002C1E3478
:1001E00020212224342627252E362D3738271E1F7E
:1001F000202122232425263333362E37381F0405A9
:10020000060708090A0B0C0D0E0F10111213141516
:10021000161718191A1B1C1D2F3130232D350405F4
:10022000060708090A0B0C0D0E0F101112131415F6
:10023000161718191A1B1C1D2F3130354C09025B7B
:1002400000030100A0FA09040000010301010009F4
:100250002111010001224400070581030800010962
:100260000401000203000000092111010001222203
:100270000007058203200001070503032000010990
:100280000402000103000000092111010001227B8A
:10029000000705840320000112010002000000088D
:1002A000EDFE60600001010203011C03760069009D
:1002B00061006C003A0066003600340063003200D2
:1002C00062003300630000002003450072006700F5
:1002D0006F00440061007300680020007200650038
:1002E000760031002E00320000000C034F006D003C
:1002F0006B006200640000000403090429001E0072
:100300001F002000210022004600350014001A00C2
:100310000800150017002D002B0004001600070030
:1003200009000A002F00E1001D001B000600190053
:1003300005003602E000E300E200E20021522C4218
:100340002C004C00270026002500240023002A0052
:100350003100130012000C0018001C002E003400A5
:1003600033000F000E000D000B003000E5003800D8
:100370003700360010001100007E4F00520051007F
:10038000500025522843215201003A003B003C0016
:100390003D003E00000000001E021F02200221025C
:1003A0002202000001001E001F0020002100220088
:1003B000000001001C000000000000000000000020
:1003C0000100010001000100010028002452440046
:1003D00043004200410040003F0001004500270269
:1003E0002602250224022302000000002700260026
:1003F0002500240023000000010000000000000090
:1004000000000000E6000100010001000100010001
:1004100001000100010000000000000000000000D9
:10042000000035021E02230224022F002D020000CC
:1004300001002D002E022E00260236022C000100A3
:100440003800250231022F022202000001000100C3
:10045000010001000000010000004C00000000004D
:100460000000000000002A00000000000000310031
:10047000300000000000340034023802330227024A
:10048000370200000100000021021F02300220029A
:100490000000010001000100010000000100000057
:1004A000010000000000000000000000000000004B
:1004B000000000000000000000000000010000003B
:1004C000000000000000000000000100000000002B
:1004D0000000000000000000010001000100010018
:1004E0000100010001004C000000000000000000BD
:1004F00000002A00000049004D0052004A004B0055
:10050000000000004C004F00510050004E00280039
:1005100000000000D9000000000000000000000002
:10052000DC00DA00DB000100010001000000000037
:10053000000000000000000000000000017C00003E
:1005400000000000000000000000000000000000AB
:10055000000000000000000000000000000000009B
:100560000000000000000000000000000100010089
:10057000010000000000000000000000000000007A
:100580000000000000000000307C000000000000BF
:10059000000000000000000000000000000000005B
:1005A000000000000000000000000000000000004B
:1005B000000001000100010000003A003B003C0087
:1005C0003D003E00000000000000000000000000B0
:1005D000000000000100000000000000000000001A
:1005E000000001000000000000000000000000000A
:1005F00001000100010001000100010024524C0033
:1006000043004200410040003F002A0045005600E0
:10061000610060005F0083000000000057005E0082
:100620005D005C0000000000000000005B005A005C
:100630005900000001000000360063006200010064
:1006400001002452FD377A585A000004E6D6B44619
:100650000200210116000000742FE5A3E008E70165
:10066000F95D003D888986D3DC0AE842C3249258AC
:1006700042597FBD199CAC446A2CE60C77CDA20888
:1006800039BC4E43480915ABF5736E5E66A72A0E5A
:10069000D25F789B8283CB8B3569ED96F43955E92F
:1006A0002062B6BB8FE5743081810625DF905C6FD8
:1006B0005321A539460605EB7A9D950DF9E0FEE339
:1006C000DA0CF40841ED17CA3ADCEEE9184B2CB904
:1006D0002BB7497685BB2C1B6FC1FD846924C3B041
:1006E000DA500FAFCFCC7138A7E0C15FDBE1A4DDFA
:1006F000B8214F2A083B6F8EC1CA3F67E9F3855581
:1007000026586E5C5D5838E5F2721BFA63D9CC93BB
:100710004677C0C271B9F89939F51F3B868FC0552D
:10072000D8A5B63A8BD2207CFC56A0AC19D347D2C0
:100730004F0C1C5270C689D4A901552012CE7149A4
:100740009B3CF5FB32495CEBE81B54378B188890D7
:100750004B2B0B940B823F77063D0D72D371E9D67C
:10076000117FD95D9075D3035C9019050D4E67A379
:10077000F9AD020DE1D5643F87153AE59D93E4C9D3
:10078000CB8677811ADFD73661E82925AFEF1403CE
:100790005327B3C667B0CA9024C0390C01C1F2C058
:1007A000795B513F698B22E11A9A4B2CAFB99A07BA
:1007B0000DA3B0171D7EB225455C7D3DC2D4EA4134
:1007C000A9FC5C829C8597E822D0218987A5941199
:1007D0003BECC4DFFCB0EB776949A060EC91F95FBA
:1007E0009539D590151455B3B9F93CD497092ED93C
:1007F000C78165FE3755E2F15484AAE387B6DB6E04
:10080000A08BD1B9C21ABE1867D82C54BDFB58347E
:10081000D788C241D8034E08E9CC9C59512FC84112
:10082000DAE5CDB02D8894CE6D4EE66A9679A315A3
:1008300075DBCE8280F2A5AFABEAE0CB9ACF5CEE5F
:1008400019A3955225BF88483C09F6BF3B0355982C
:1008500044604E92B03B915D3DCFC57B00000000EF
:10086000975FA0EA5C1074C300019504E8110000D2
:100870007D555175B1C467FB020000000004595A50
:1008800011241FBECFEFDAE0DEBFCDBF11E0A0E044
:10089000B1E0E8E7FEE502C005900D92AC3AB10781
:1008A000D9F723E0ACEAB1E001C01D92A730B2074E
:1008B000E1F70E9415240C94C02E0C9400009C01BA
:1008C000FB019A9581159F4120F5D901AA27B270A5
:1008D000832F8170B90166277470A901442758706D
:1008E00034FF0DC08295807FAB2B09F08062672BAF
:1008F00009F08064452B09F0806809950895AB2BB9
:1009000009F08260672B09F08460452BB1F38860A1
:10091000F4CF80E0F2CF8093BC0208958093BD02B3
:10092000089521E030E001C0220F8A95EAF7809116
:10093000BD02822B0E948E04089521E030E0A901BF
:1009400002C0440F551F8A95E2F7CA018095909125
:10095000BD0289230E948E040895292F9A3098F5AC
:10096000873088F590E037E0239F800D911D11249A
:10097000282F277041E001C0440F2A95EAF723E0B1
:10098000969587952A95E1F7FC01EE0FFF1FE80F7A
:10099000F91FED5BFD4F20E030E070E05191DF0189
:1009A0001197CB01022E02C0969587950A94E2F723
:1009B000817081958527842385278C932F5F3F4FF6
:1009C0002330310559F70895292F9A3078F587306B
:1009D00068F590E037E0239F800D911D1124682F6A
:1009E000677023E0969587952A95E1F7FC01EE0F55
:1009F000FF1FE80FF91FED5BFD4F40E050E080E086
:100A0000219130E0062E02C0369527950A94E2F730
:100A100021703327042E01C0220F0A94EAF7822B9B
:100A20004F5F5F4F4330510559F7089580E00895B7
:100A30009091BD0221E030E0F90101C0EE0F8A95EE
:100A4000EAF7D90102C0AA0FBB1F6A95E2F7EA2BA9
:100A500001C0220F4A95EAF7892F8E23E81305C0BB
:100A6000892F822B0E948E0408952095822F89233E
:100A7000F9CF8091C5029091C402981301C00895E6
:100A80008F5F8770FACF9091BF0280958923809302
:100A9000BF02282F2770211111C0891779F090917A
:100AA000060392FF0BC08695869586950E949D044D
:100AB0001092BF021092C1021092C0020895982FA6
:100AC00090958091BA0289238093BA02089580910B
:100AD000B902882331F01092B9021092C302109229
:100AE000C2020895803E9105D1F1C8F48133910589
:100AF00009F47FC048F48932910509F46FC08A3245
:100B0000910509F47DC0089589339105E1F082389B
:100B10009105C9F08533910509F45BC00895843EC1
:100B20009105D1F148F4823E910531F1833E910562
:100B300041F181EE90E00895863E9105C1F1873E36
:100B40009105E1F10895209105032370211165C0FD
:100B50002091060323FF14C089E290E008952091BC
:100B6000050320FD43C03091060330FF09C024FF78
:100B70004EC080E090E008952091050322FDF7CF5C
:100B800008952091050322FD45C03091060330FDF4
:100B900044C024FFF5CFEDCF2091060321FFF0CF15
:100BA0008091050384FDE5CF87EE90E008952091C4
:100BB000050323FFE5CF24FDDCCFF6CF209105030D
:100BC00023FD2EC03091060331FFE3CF84EE90E089
:100BD00008952091050325FFD3CFBECF20910503B3
:100BE00025FD21C02091060323FFCACF89E390E0B1
:100BF00008952091050326FFC3CF8AE290E008956F
:100C00002091050326FFBCCF81E390E0089583EE99
:100C100090E0089582EE90E0089580EE90E00895CF
:100C200086EE90E0089585E390E0AACF90910503C9
:100C300092FF10C041E0282F2471243009F040E0D9
:100C400031E0282F2871283009F030E0431711F0E7
:100C50002CE0822793FF10C041E0282F247124311B
:100C600009F040E031E0282F2871283109F030E008
:100C7000431711F02CE082273091060330FF10C09B
:100C800051E0282F2171213009F050E041E0282F58
:100C90002871283009F040E0541711F029E082272C
:100CA00031FF10C041E0282F2171213109F040E0CF
:100CB00031E0282F2871283109F030E0431711F076
:100CC00029E0822794FD877E08951F93CF93DF93B9
:100CD0000E947205EC01811522E5920708F053C0CD
:100CE000811540E5940708F0DDC0803E9105F8F4D9
:100CF0008D3C910508F0AEC0883A910580F4853AA4
:100D0000910508F099C08130910521F00497813A4E
:100D1000910550F4CE01DF91CF911F910895885A2B
:100D200091094B9708F48BC0C0E0D0E0F3CF811558
:100D300050E49507F8F4C11580E2D80708F0CBC05D
:100D4000C83ED10538F3CE019A9581159F4160F7D1
:100D50008D2F0E941606182FCE0199270E9472052A
:100D6000212F30E0322F2227E901CC27DF71C82B59
:100D7000D92BD0CF99270E947205CC27DF70C82BC2
:100D8000D92BD06AC7CF803842E59407C8F58036A2
:100D900052E5950708F067C0C03482E5D807B0F087
:100DA0008C2F86958695877020E2829FC001112442
:100DB000C37021E030E0A90102C0440F551FCA955D
:100DC000E2F7EA01C82BD92BDC68A4CFC03252E588
:100DD000D50708F041C08C2F8695869520E2829F2A
:100DE000C0011124C37021E030E0A90102C0440F0A
:100DF000551FCA95E2F7EA01C82BD92BDD688ACFC7
:100E0000803C52E5950760F48F71C03AD24508F0F6
:100E10003FC090E0982F8827EC01C46FD06A7ACF4A
:100E2000805C9245809708F07FCFDC2FCC27CC27C1
:100E3000DF71C06FD06A6ECFA497D0646BCFC85AF1
:100E4000D0E0CC0FDD1FCB58DE4F0990D881C02DEC
:100E5000D46460CFD0655ECFCF71D0E0DC2FCC27DB
:100E6000C16FD06A57CF86958695877020E2829FA2
:100E7000C0011124C37021E030E0A90102C0440F79
:100E8000551FCA95E2F7EA01C82BD92BDA6842CF81
:100E90000E941606C82FD0E0DC2FCC27CC27DF71AC
:100EA000D06238CF8F710E94160665E0D695C7953F
:100EB0006A95E1F7CF70D0E0DC2FCC27282F30E007
:100EC00084FF05C054E0220F331F5A95E1F7C22B6F
:100ED000D32BD0691FCF8D2F8F710E941606182F2C
:100EE000CE0199270E947205212F30E0322F222750
:100EF00022273F71282B392BE901D2CF80E00895BA
:100F0000F894E82FE295EF70F0E041A18F7021E0B6
:100F100030E0B90102C0660F771F8A95E2F7CB0176
:100F2000962F9095942391A392A1892B82A37894D4
:100F30000895E6E7F2E080E090E06BE273E242E5DC
:100F400053E227EC33E27783668351874087338708
:100F5000228797878687019670968430910599F746
:100F60000895282F35EB2303C001112497FF04C0F7
:100F700080589109892F089580589F4FFBCF809109
:100F8000600280FD14C081FD14C082FD16C08091F6
:100F90005F02882381F08E3180F420E5829FC001BA
:100FA00011246EE170E00E94FB2D862F089584E1EC
:100FB000089588E2089588E0089580E50895809175
:100FC000600280FD17C081FD17C082FD19C08091AD
:100FD0005E02882399F0883298F428E0829FC0014D
:100FE000112468E270E00E94FB2D6115710551F03B
:100FF000862F089562E0FCCF64E0FACF61E0F8CF7D
:1010000068E0F6CF81E00895FA01309709F009957C
:10101000089580912D02882359F0E0913902F091D2
:101020003A02309729F00190F081E02D099508955A
:1010300080E008950E9409080895A3E0B0E0E3E28B
:10104000F8E00C94D42D9C018091DA019091DB01A1
:1010500082179307A1F03093DB012093DA01E0912E
:101060003902F0913A02309751F083E089833B8353
:101070002A830084F185E02DCE01019609952396FF
:10108000E2E00C94F02DA3E0B0E0E9E4F8E00C9489
:10109000D42D9C018091D8019091D901821793079A
:1010A000A1F03093D9012093D801E0913902F09159
:1010B0003A02309751F084E089833B832A8300848D
:1010C000F185E02DCE01019609952396E2E00C947E
:1010D000F02DA0EBB1E0EFEF90E02D91821751F0F1
:1010E000EF3F19F4211101C0E92F9F5F9630A9F756
:1010F000EF3F09F408950E2E000CFF0BE255FE4F52
:1011000082830895E0EBF1E09191891303C0DF0140
:1011100011971C9291E0E63BF907B1F708952FB7BC
:10112000F8948091160290911702A0911802B09144
:1011300019022FBF08959091060392FF10C098E006
:10114000899F90011124622B6093BF020E94910439
:101150000E948F089093C1028093C00208950E945C
:10116000910408959091B902292F2823222361F038
:10117000809589238093B902882339F00E948F08D3
:101180008093C2029093C302089580E090E0F8CF6C
:101190000E948F082091630230916402232B222346
:1011A00021F08093FE019093FF0120916502309120
:1011B0006602232B222321F08093FC019093FD01F2
:1011C000E0913902F0913A02309749F082E0809341
:1011D00061020680F781E02D81E692E0099508958D
:1011E000209163029091660230916502662309F4B2
:1011F0005AC040916402242B292B232B222331F047
:1012000098E090935F0291E090935E028D3C41F4F0
:101210000E94BF078195809364020E94C8080895C8
:10122000E2E3E80FE231C8F7F0E0EE53F14D0C9441
:101230000F2E0E94BF07EFCF0E94BF0781958093BA
:101240006302EBCF0E94BF07FACF0E94DF078093B3
:101250006502E3CF0E94DF078195F9CF0E94DF0787
:10126000819580936602D9CF0E94DF07FACF815D16
:10127000990B21E030E001C0220F8A95EAF78091B6
:101280006202822B80936202C8CF809160028160EB
:1012900080936002C2CF809160028260F9CF80911A
:1012A00060028460F5CF8D3C59F48091640287FF21
:1012B0000DC010926402222359F410925F0208C0FC
:1012C0008E3C81F48091640218169CF3222381F0F5
:1012D0008091650290916602892B81119ECF1092B8
:1012E0005E029BCF8F3C41F427FFF0CF1092630248
:1012F000809164028823E0CF803D19F41216B4F384
:10130000E5CF893D29F413160CF710926502DECF64
:101310008A3D19F437FFDACFF8CF8B3D29F497FFD8
:10132000D5CF10926602D2CF8C3D19F41916CCF3AA
:10133000CDCF9FE2980F983090F4815D990B41E0FA
:1013400050E0BA0102C0660F771F8A95E2F7CB0121
:10135000809590916202892380936202B7CF8D3D80
:1013600031F4809160028E7F80936002AFCF8E3D1A
:1013700021F4809160028D7FF7CF8F3D09F0A6CFD9
:10138000809160028B7FF0CFA4E0B0E0EAECF9E05E
:101390000C94D42D8FB7F894209116023091170237
:1013A000409118025091190229833A834B835C8340
:1013B0008FBF69817A818B819C812496E2E00C94B5
:1013C000F02DA4E0B0E0E7EEF9E00C94D42D80918C
:1013D0002D02882371F00E94C40969837A838B836C
:1013E0009C8369817A818B819C812496E2E00C94B4
:1013F000F02D0E94C40969837A838B839C8380913A
:101400002F0290913002A0913102B09132022981D5
:101410003A814B815C81280F391F4A1F5B1F29834A
:101420003A834B835C83DDCF9C014FB7F894809166
:10143000160290911702A0911802B09119024FBFA5
:10144000821B930B089587E797E790930108809399
:10145000000888E19AE00FB6F894A89580936000A0
:101460000FBE90936000FFCF8091D701089508953B
:10147000FC019B018091CD019091CE0186179707C9
:1014800040F0672B29F48091E8008E778093E80084
:10149000C90140E0009741F4411106C08091E80085
:1014A00082FF2FC080E00895209111022223A9F12C
:1014B0002530A9F12091E80023FD2DC02091E800FE
:1014C00022FDECCF2091E80020FFE4CF3091F30023
:1014D0002091F200009719F02830310558F041E0D2
:1014E0002830310509F040E02091E8002E77209364
:1014F000E800D0CF41914093F10001972F5F3F4F1B
:10150000E9CF80911102882341F0853041F080912C
:10151000E80083FFC3CF81E0089582E0089583E06F
:1015200008958091C70187FF13C08091E80082FF72
:1015300006C08091E8008B778093E80004C080911A
:1015400011028111F2CF0895809111028823D9F3FD
:101550008091E80080FFF8CF8091E8008E77ECCF93
:101560002091E4003091E50095E6A9018091EC001E
:101570008170882331F08091E80080FF06C080E010
:1015800008952091E80022FD1BC08091110288235C
:1015900091F0853091F08091EB0085FD10C0209195
:1015A000E4003091E5004217530701F39150911187
:1015B000DCCF84E0089582E0089583E0089581E01F
:1015C0000895E8EDF0E080818E7F80831092E20044
:1015D0001092DA001092E100A0EEB0E08C918160F0
:1015E0008C9380818F77808319BCA7EDB0E08C91BC
:1015F0008E7F8C9380818F7E80831092C6010895A8
:10160000FC01AC014B5F5F4F8FEF91E3219182278B
:1016100028E030E087FF0BC0880F8927215031096F
:1016200021153105B9F7E417F50781F70895880FFB
:10163000F5CF982FE42FE2709093E900891308C04A
:10164000762F242F50E0E11111C091E0980FF4CFD4
:101650007091EC002091ED005091F00021FD06C04A
:101660009F5F973049F78093E90008953091EB0030
:101670003E7F3093EB003091ED003D7F3093ED00E5
:101680003091EB0031603093EB007093EC002093CD
:10169000ED005093F0002091EE0027FDE1CF08957A
:1016A000A0E0B0E0E6E5FBE00C94CE2DC8EDD0E084
:1016B00088818F7E8883E7EDF0E080818160808380
:1016C00084E082BF81E08093C60188818E7F888319
:1016D00002EE10E0F80110821092DA0081EEC82EBE
:1016E000D12CF601108288818F7788838881806869
:1016F000888388818F7D888319BC10921102109293
:10170000C5011092F0011092C40190EEE92EF12C67
:10171000F70180818B7F808388818160888342E0AC
:1017200060E080E00E94190BF60180818E7F80834B
:10173000F801808181608083808188608083F701E7
:1017400080818E7F8083888180618883CDB7DEB77A
:10175000E8E00C94EA2DE091C5029091C40227E0E4
:10176000E91302C080E00895AE2FB0E02E9FF00193
:101770001124EA53FD4F3181361306C030813813EE
:1017800003C03581341304C0FD013196E770E8CF02
:1017900081E008950F931F93CF93DF93EB018A01AC
:1017A00090911102943079F58093E9008FEF909138
:1017B000E80095FD07C095ED9A95F1F7000081507E
:1017C0008111F5CF8091E80085FF1DC00E94B00A0D
:1017D000811114C08091E80085FD06C08091E80069
:1017E0008E778093E800F2CF88818093F1000150DA
:1017F00011090115110511F02196ECCF8091E80037
:101800008E778093E800DF91CF911F910F9108951B
:10181000CF93DF93D82FC92F48E050E0682F792F5E
:1018200081E00E94CA0B88E0ED2FFC2FAFECB1E005
:1018300001900D928A95E1F7DF91CF910895BC0157
:1018400046E050E084E00E94CA0B0895BC0143E0EA
:1018500050E084E00E94CA0B0895A0E0B0E0E3E30A
:10186000FCE00C94CC2DF82EE92EB62EA72E8A0182
:101870008091C201CC24C394D12C8A3018F48AE020
:10188000C82ED12CC1E0D0E06B2D7A2D8F2D9E2D4E
:10189000F8010995811116C02196CC16DD0694F049
:1018A000CC9FC001CD9F900D900D112420E030E021
:1018B00045E34A95F1F700002F5F3F4F281739079E
:1018C000B9F7E2CFCDB7DEB7EAE00C94E82D9091FE
:1018D000060392FB222720F9281779F080FB92F962
:1018E00090930603609105037091060384E090E0F5
:1018F0000E94A22E82E00E94430508956091B602E4
:101900008CE090E00E94842E08952091EE01082E34
:10191000000C990B820F911D27FD9A9562E070E0F3
:101920000E94FB2D8F3F09F481E08093EE01E82FA8
:10193000880FFF0BEF58FE4F80818093B6020E9404
:101940007E0C08951F93CF93DF93962F122F632F52
:101950008630D8F49A30C8F44730B8F4C42FD0E0B9
:10196000CC0FDD1F2EE0929FC00DD11D11249CE8ED
:10197000899FC00DD11D1124CE0189960E94842E0D
:10198000612FCE018A960E94842EDF91CF911F9104
:101990000895CF93DF93C9E9D3E060E0CE010E94C0
:1019A000842E2196C11584E0D807B9F7DF91CF9135
:1019B0000895882381F063E185E290E00E94842EFF
:1019C00069E486E290E00E94842E69E987E290E073
:1019D0000E94842E08956FEF85E290E00E94842E8D
:1019E0006FEF86E290E00E94842E6FEFEFCF0F93AF
:1019F0001F93CF93DF93863030F56A3020F5473060
:101A000010F5C42FD0E0CC0FDD1F2EE0629FC00D7B
:101A1000D11D11243CE8839FC00DD11D1124CE019E
:101A200089960E94662E082F10E0102F0027CE0105
:101A30008A960E94662E9801282BC901DF91CF91CA
:101A40001F910F91089580E090E0F8CF462F672F07
:101A50002091350230913602232B91F4703F39F4F6
:101A6000403F71F4809133029091340208957A30AE
:101A700038F4473028F4863018F40E94F70C0895A3
:101A800080E090E00895A0E0B0E0E9E4FDE00C948F
:101A9000CF2D7C010091BD028091BC02082BC5E0D6
:101AA000D0E010E0C8010C2E02C0959587950A94ED
:101AB000E2F780FD09C02197A8F7D12C8D2DCDB775
:101AC000DEB7E7E00C94EB2DDC2EB7018C2F0E94E3
:101AD000260D0E946506019771F3F0CF0F931F93B7
:101AE000CF93FC01858100811181882391F06623C9
:101AF00081F0C8010E94430DC82F682FC8010E94C1
:101B0000AD04B8018C2F0E94260DCF911F910F912B
:101B10000895C8010E94E404C82FF3CFCF93DF9348
:101B2000D82FC92F0E94430D6D2F7C2F0E94260DA8
:101B30000E946506DF91CF910895FC01848188237E
:101B4000A1F0808191810E948E0D282F92959F7027
:101B5000963091F060F4925F9F70923030F481E0A3
:101B6000203F79F030F4283E30F080E004C09A5FE6
:101B7000F3CF243FD1F7089581E0283E18F0213FAC
:101B8000F9CF0895089585E290E00E94662E833192
:101B900089F486E290E00E94662E893459F487E247
:101BA00090E00E94662E91E0893909F090E0892F3B
:101BB0008170089580E0FCCFCF93DF93C091BA028B
:101BC0008091BE02C82B8091B9028823F9F00E944F
:101BD0008F082091C2023091C302821B930B883878
:101BE000934110F00E946705D091B90220E080EB8C
:101BF00091E0FC013081019631112F5F31E0863B8D
:101C00009307B9F721110E946705CD2BC093AE0150
:101C100048E050E06BE372E08EEA91E00E94392EDA
:101C2000892BA9F088E0EEEAF1E0ABE3B2E00190A5
:101C30000D928A95E1F7E0913902F0913A023097DE
:101C400031F00280F381E02D8EEA91E00995DF9179
:101C5000CF910895CF931092BA02C6E0E0EBF1E085
:101C6000DF018C2F1D928A95E9F780E090E00E94B9
:101C70001D0880E090E00E9443081092BE020E947E
:101C8000DC0DE1E6F2E0DF011D92CA95E9F7109262
:101C90005F0210925E02109260020E94C808CF910B
:101CA00008950E942A0E2FEF84E39CE0215080408B
:101CB0009040E1F700C0000088E19AE00FB6F89488
:101CC000A895809360000FBE90936000FFCFAAE2BA
:101CD000B0E0EDE6FEE00C94D32D87EC91E0FC0142
:101CE00001962091F100208321E08F3C9207B9F703
:101CF0008091C801893009F456C0C8F4823009F4D3
:101D0000B3C0833009F482C0813071F18091E80062
:101D100083FFE7C08091C7019091C8019A3008F015
:101D2000E0C0E92FF0E0EC52F14D0C940F2E8A3018
:101D300009F489C08B3051F78091C701813231F7A6
:101D40008091CB019091CC01892B01F78091E80023
:101D5000877F8093E8000E94910A8091C901809357
:101D600000010E942A0ED2CF8091C701813A71F6FC
:101D70008091E800877F8093E8008091CB0190916B
:101D8000CC01892B61F060E080E090E070E00E947F
:101D9000380A8091E8008B778093E800B7CF68E03D
:101DA0008FEC91E0F3CF8091C701813209F0AECF83
:101DB0008091CB019091CC018D7F892B09F0A6CF2A
:101DC0008091E800877F8093E8008091E80082FF9F
:101DD00018C09091F3008091F200029731F4809145
:101DE000F100813011F0863021F48091F100809370
:101DF000D7018091E8008B778093E8000E94910AD8
:101E000085CF809111028111E0CF80CF8091C701F1
:101E1000813A09F07BCF8091CB019091CC01892B45
:101E200009F074CF8091E800877F8093E80080916B
:101E3000E80080FFFCCF809100018093F100809149
:101E4000E8008E77D9CF8091C701813209F05ECF4B
:101E50008091E800877F8093E8000E94910A80913A
:101E6000CA018093C30152CF8091C701813A09F022
:101E70004DCF8091E800877F8093E8008091E80053
:101E800080FFFCCF8091C301D8CF803889F08238A1
:101E900041F58091CB018F70873018F58093E90070
:101EA0008091EB0085FB882780F91092E90006C03D
:101EB0008091C4019091F001911182609091E800AD
:101EC000977F9093E8008093F1001092F100809149
:101ED000E8008E7723C0811116C08091C90181303E
:101EE00011F18091E80083FF0AC08091E800877FAC
:101EF0008093E8008091EB0080628093EB00AA96CB
:101F0000E3E00C94EF2D823061F78091C9018823C2
:101F100089F01092E9008091E800877F8093E800C3
:101F20000E94910ADECF81E0933009F080E0809337
:101F3000F001EFCF8091CB018F702FEF280F26306B
:101F400080F68093E9002091EB0020FFE2CF9330F0
:101F500031F48091EB0080628093EB00DACF9091B6
:101F6000EB0090619093EB0021E030E0A90102C00A
:101F7000440F551F8A95E2F74093EA001092EA0059
:101F80008091EB008860E8CF8111ABCF1091C9013F
:101F90001F778091E3008078812B8093E30080910C
:101FA000E800877F8093E8000E94910A8091E80012
:101FB00080FFFCCF8091E30080688093E30083E0A2
:101FC000111101C082E0809311028BCF80588230C2
:101FD00008F087CF4091C9015091CA014C3D83E080
:101FE000580799F583E08A838AE289834FB7F8948A
:101FF000DE01139620E03EE051E2E32FF0E0509343
:102000005700849120FF03C082958F703F5F8F70CF
:102010008A30C8F0895C90E08D939D932F5F2431C6
:1020200061F74FBF8091E800877F8093E8006AE204
:1020300070E0CE0101960E94380A8091E8008B770B
:102040008093E8004ECF805DE6CF8091CB019091E8
:10205000CC01252F33272330310509F44AC078F508
:102060002130310509F483C08BE590E0EDE3F2E027
:102070002230310509F035CF2091E800277F2093E9
:10208000E8002091CD013091CE018217930708F42A
:102090009C0140E02115310509F06EC041116CC072
:1020A0008091E80082FDC9CF80911102882329F236
:1020B000853019F28091E80083FFF2CFBECF213244
:1020C000310509F445C02232310509F00ACF8330C9
:1020D000910508F006CFFC01EE0FFF1FE75AFE4FF7
:1020E0000190F081E02D8A5A9E4FDC018C9190E0A6
:1020F00010C0CA019927423019F18330910568F464
:10210000892BB1F4E8EFF2E0E4918E2F90E0E8EF54
:10211000F2E0009709F4E5CEAFCF039709F0E1CEE6
:10212000EAEAF2E0E4918E2F90E0EAEAF2E0F1CF01
:10213000EAEEF2E0E4918E2F90E0EAEEF2E0E9CFF1
:10214000E8ECF2E0E4918E2F90E0E8ECF2E0E1CFF1
:102150008330910508F0C5CEFC01EE0FFF1FE15A58
:10216000FE4F0190F081E02D89E090E085CF82E183
:1021700090E0E8E9F2E080CF80911102882309F431
:102180005CCF853009F459CF8091E80083FD55CFAD
:102190008091E80082FD84CF8091E80080FF7ACFB3
:1021A0009091F3008091F2002115310519F08830EB
:1021B000910550F041E0089709F040E08091E80077
:1021C0008E778093E80066CF44914093F10031967A
:1021D000215031090196E8CF803809F082CE8091F4
:1021E000E800877F8093E8008091C5018093F1002B
:1021F0006ECE811176CE1091C901123008F071CEE9
:102200008091E800877F8093E8001093C5010E94C9
:10221000910A1123D1F084E08093110242E061EC35
:1022200081E00E94190B42E261EC84E00E94190BEC
:1022300042E261EC82E00E94190B42E260EC83E032
:102240000E94190B809111024CCE8091E30087FD12
:10225000E2CF81E0E1CFCF93C82F8823C9F0823845
:10226000C9F40E941A0881FD13C089E30E9469081D
:102270000E94DC0D2FEF37EE83E02150304080408C
:10228000E1F700C0000089E30E9482080E94DC0D93
:10229000CF9108958338A1F40E941A0880FDF8CFE9
:1022A00083E50E9469080E94DC0D9FEF21EE34E077
:1022B000915020403040E1F700C0000083E5E4CFBA
:1022C0008438A1F40E941A0882FDE2CF87E40E94BC
:1022D00069080E94DC0D8FEF91EE24E08150904060
:1022E0002040E1F700C0000087E4CECF8CEF8C0FD8
:1022F000813A70F4E0EBF1E086EB91E02191C217B6
:10230000D9F18E179F07D1F78C2F0E946908BECF95
:1023100080E28C0F883068F4C77021E030E001C0A3
:10232000220FCA95EAF78091BA02822B8093BA02F3
:10233000ADCF8BE58C0F833038F42C2F2452330B28
:10234000C9010E941D08A4CFE8E5EC0FEB3150F461
:10235000F0E0EE0FFF1FEB58FE4F808191810E944D
:10236000430896CF83E38C0F833108F091CF61E06F
:102370008C2F0E94F0088CCF8C2F0E9482080E9424
:10238000DC0DC2CFCF93DF93EC01805E91090897FB
:1023900020F06FE775E1209711F46EE675E1CE014C
:1023A0000E945F048C2F0E942B11DF91CF91089522
:1023B000882309F456C0823879F40E941A0881FFF4
:1023C00050C089E30E9469080E94DC0D89E30E94E5
:1023D00082080E94DC0D0895833859F40E941A087F
:1023E00080FF3FC083E50E9469080E94DC0D83E501
:1023F000EECF843859F40E941A0882FF32C087E475
:102400000E9469080E94DC0D87E4E1CF9CEF980FE1
:10241000913AE8F290E2980F983050F4877091E08A
:1024200001C0990F8A95EAF7892F0E945F05D1CFE5
:102430009BE5980F933028F480E090E00E941D08FF
:10244000089598E5980F9B3128F480E090E00E9471
:102450004308089593E3980F933118F460E00E94C5
:10246000F0080895CF93DF93EC010E94D811CE01BC
:10247000805E9109089720F069E875E1209711F4D2
:1024800068E775E1CE010E945F04DF91CF91089566
:102490000F931F93CF93DF938C01EB010E94C21126
:1024A000209741F4C8010E943212DF91CF911F9111
:1024B0000F9108958FE99FE00197F1F700C00000A8
:1024C0002197EECF1F93CF93DF93182FEB010E943C
:1024D0002B11209739F4812F0E94D811DF91CF91D1
:1024E0001F9108958FE99FE00197F1F700C0000068
:1024F0002197EFCF60E070E0893311F460E570E080
:102500000E94621208950E941A088093DD01909142
:10251000B602913029F481FF03C089E30E947A1248
:102520008091BA028093DC011092BA021092BE022E
:102530008091B6028230C9F030F481110FC082EE72
:102540000E942B1104C0843021F1853039F18FE3D2
:102550009CE90197F1F700C00000089560E070E089
:1025600088E193E00E944812F2CF8091DD0180FD66
:1025700003C083E50E947A1282EE0E942B118FE342
:102580009CE90197F1F700C0000087E50E947A12EC
:10259000DECF86EE0E947A1288E1F8CF60E070E02C
:1025A0008BE191E00E94481260E070E085E290E0EB
:1025B0000E94481260E070E088E290E0D3CF809102
:1025C000B6028230D9F030F481110DC082EE0E9443
:1025D000D81104C08430D9F08530D9F08091DC0165
:1025E0008093BA0208958CE20E947A128091DD01F4
:1025F00081FFF4CF89E30E947A12F0CF82EE0E942D
:10260000D8118091DD0180FDE9CF83E5F4CF88E228
:10261000F2CF60E070E088E290E00E944812DECFE6
:10262000A0E0B0E0E6E1F3E10C94CF2DE82FF0E07C
:10263000E354FE4FD490282F26952695269530E01A
:10264000F901E355FE4F0491877010E0082E02C097
:10265000159507950A94E2F701701127F901E356E1
:10266000FE4FE490F12C082E02C0F594E7940A94F2
:10267000E2F791E0E922FF24F901E357FE4FC4910C
:10268000D0E002C0D595C7958A95E2F7C170DD27E5
:102690000115110591F4E114F104F1F460E070E02A
:1026A0008D2D0E946212CD2B19F08CE20E947A12BD
:1026B000CDB7DEB7E7E00C94EB2D81EE0E942B1135
:1026C000E114F10449F460E070E08D2D0E94621283
:1026D00081EE0E94D811E7CF86EE0E942B1160E0B8
:1026E00070E08D2D0E94621286EE0E94D8110115B5
:1026F0001105C9F2EDCF9091B602923071F48A3093
:1027000050F4875F90E06AE070E00E94FB2D875AEA
:102710000E947A1208958650FBCF96EF980F96305C
:1027200020F0805D0E9410130895895AFBCFA0E02D
:10273000B0E0EDE9F3E10C94CC2D6B017C01A090AD
:10274000B6020CE110E0C7E0D0E021E0D701C601FD
:10275000002E04C0B695A795979587950A94D2F751
:10276000382F3F70B32E222349F084E0A81215C001
:1027700029E02B1590F480E00E947B138B2D0E94A2
:102780007B1321970450110920E0CF3FDC07F1F6BD
:10279000CDB7DEB7EAE00C94E82DB110EFCFC4302E
:1027A000D10564F3219704501109D701C601002E09
:1027B00004C0B695A795979587950A94D2F7382FB8
:1027C0003F70B32ED2CF8F929F92AF92BF92CF9293
:1027D000DF92EF92FF92CF93DF9300D000D000D032
:1027E000CDB7DEB78D839E83AD81BE816C916111C3
:1027F00011C00F900F900F900F900F900F90DF91DE
:10280000CF91FF90EF90DF90CF90BF90AF909F90CF
:102810008F90089567FD0FC02D813E812F5F3F4F40
:102820003E832D83862E912CA12CB12C0E948312E5
:10283000C501B401EFC0AD81BE8111962C911197F5
:10284000862F807E803CB9F41296BE83AD83862E9F
:10285000912CA12CB12CA6E0880C991CAA1CBB1CA5
:10286000AA95D1F7B0EC8B22B7E09B22AA24BB2417
:102870002F73822ADBCF862F807F803EC9F570E0E0
:1028800080E090E0ECE0660F771F881F991FEA95C3
:10289000D1F788279927C22ED12CE12CF12CF6E014
:1028A000CC0CDD1CEE1CFF1CFA95D1F7E0ECCE221F
:1028B000EFE0DE22EE24FF24C62AD72AE82AF92AEE
:1028C000AD81BE8112962C9112972F731396BE8301
:1028D000AD8346015701822AD501C401985DA10943
:1028E000B10981159840A105B10508F47DCF9ECFAF
:1028F000862F887F803F09F092C0653F08F08FC027
:10290000C62ED12CE12CF12C32E1CC0CDD1CEE1CBE
:10291000FF1C3A95D1F7CC24DD24FCE1EF22FF2403
:10292000822F90E0A0E0B0E04CE0880F991FAA1F32
:10293000BB1F4A95D1F78827907FA370BB278C29AE
:102940009D29AE29BF29ED81FE8123812F736C0162
:102950007D01C22A828190E0A0E0B0E056E0880FBD
:10296000991FAA1FBB1F5A95D1F7807C9F70AA2779
:10297000BB27C82AD92AEA2AFB2A3496FE83ED838C
:1029800046015701D701C601985DA109B10981151A
:102990009840A105B10508F427CFC114D10431E155
:1029A000E306F1040CF020CFC114D10441E0E406A9
:1029B000F1040CF43BCF8091B602823009F414CFBD
:1029C0000E9483128091B602811132CF51E0E51A44
:1029D000F108D701C6012AE0B695A7959795879586
:1029E0002A95D1F79C01AD0138524F4F5F4FCA0174
:1029F000B9010E94971333E0D322EE24FF24D701BC
:102A0000C6019452AF4FBF4F89839A83AB83BC8377
:102A1000BC01CD010E9497130E94DF12E5CE2D81EB
:102A20003E812F5F3F4F3E832D83DECE0F931F935A
:102A3000CF93DF93EC018881882309F44AC0813069
:102A400009F044C08981813049F48E010E5F1F4F27
:102A50008A810E947A12E8012196EDCF823039F402
:102A60008E010E5F1F4F8A810E942B11F4CF83309D
:102A700039F48E010E5F1F4F8A810E94D811EBCF6F
:102A8000843011F02196E8CF2A81229680E090E0F0
:102A90006AE0AE014F5F5F4F2053330B2A303105A0
:102AA00050F00097C9F2EFE9FFE03197F1F700C06D
:102AB00000000197F6CF689FF001699FF00D112487
:102AC000C9018E0F9F1F2981EA01E3CF0E941013D5
:102AD000C3CFDF91CF911F910F910895882339F0D3
:102AE0009091BA02892B8093BA020E94DC0D08955E
:102AF000882321F00E945F050E94DC0D0895882341
:102B000039F09091BE02892B8093BE020E94DC0DA9
:102B10000895882341F080959091BE028923809387
:102B2000BE020E94DC0D0895CF93DF93EC014A852D
:102B30005B856E857F850E9404089B8190958091BE
:102B4000BE0289238093BE028C810E945F050E9491
:102B5000DC0D86E0FE0111928A95E9F7DF91CF91B5
:102B60000895CF93DF93EC018D8181FD17C08260C2
:102B70008D838091BE029B81892B8093BE028091C0
:102B8000BA029C81892B8093BA020E94DC0D488591
:102B900059856E857F85CE010E94040810927302CC
:102BA000109272028D8180FD03C0CE010E949415A7
:102BB000DF91CF910895A3E1B0E0E1EEF5E10C944F
:102BC000C92D1A821982FE01339688E0DF011D9219
:102BD0008A95E9F785E6A82E81E0B82E8E010F5F71
:102BE0001F4F4801EE24E394F12C21E7C22E21E08F
:102BF000D22EF50181915F018F3F09F441C0F89415
:102C0000E82FE295EF70F0E021A18F70A70102C0DC
:102C1000440F551F8A95E2F7CA01922F982B91A372
:102C200092A18095892382A3789400C0EAE6F1E01E
:102C300031E0712C21912F3F09F48AC0A22FA29577
:102C4000AF70A05EB0E08C9190E02F7002C09595BF
:102C500087952A95E2F7817081117AC0832F782AAF
:102C6000330FCE16DF0631F7F501319780818F3FA4
:102C700011F00E94800750EA5A95F1F7D8017C9232
:102C80000F5F1F4FBAE6AB16B1E0BB0609F0B1CF3C
:102C90004AE050E0B40182EE91E00E94392E0091AA
:102CA000ED0110E00B5F1D4F892B09F453C08AE042
:102CB000F401A2EEB1E001900D928A95E1F781E076
:102CC0008093BF010E948F089093BE018093BD0145
:102CD00080912D02882309F495C01C861B86FE0175
:102CE0003D9683E0DF011D928A95E9F78091C2014C
:102CF0008A3008F051C07E01BBE0EB0EF11C44E9C4
:102D000057E1B701C8010E942D0C6701882309F41F
:102D100067C04DE357E1B701C8010E942D0C88231D
:102D200009F45EC01092C2018091EC0190E045E090
:102D300050E0B6018B5F9D4F0E94392E21E0209319
:102D4000BC01892B09F03FC06396EDE00C94E52DA2
:102D500080E085CF8091BF01882309F4B9CF8091AD
:102D6000BD019091BE010E94140A059708F4B0CFEE
:102D700045E050E062EE71E0C8010E94392E892BD7
:102D800041F085E0E2EEF1E0D80101900D928A95E4
:102D9000E1F71092BF019CCF8091BA019091BB01E5
:102DA0000E94140A843F914008F0A5CF8091BC0195
:102DB000882351F2FE013B9685E0DF011D928A9542
:102DC000E9F71092BC01A091EC01B0E0AB5FBD4F00
:102DD00085E0FE013B9601900D928A95E1F7B4CF14
:102DE0008091C2018F3F39F40E948F089093BB01FC
:102DF0008093BA01DBCF8F5F8093C2018A3008F4E1
:102E000093CFF2CF85E0F801ABE1B2E001900D92F3
:102E10008A95E1F78BE192E00E94000B80931A0201
:102E2000C0902002D0902102E0902202F090230274
:102E30008091B6019091B701A091B801B091B9010C
:102E4000C816D906EA06FB0609F47ECFC092B60181
:102E5000D092B701E092B801F092B9010E94C40982
:102E6000C61AD70AE80AF90AC0922F02D092300295
:102E7000E0923102F092320267CFA8E0B0E0E3E4E2
:102E8000F7E10C94D32D40911202509113026091FE
:102E90001402709115022FB7F89480911602909148
:102EA0001702A0911802B09119022FBF841B950B35
:102EB000A60BB70B11E084369105A105B10578F199
:102EC0000E94E109DC01CB010296A11DB11D89839D
:102ED0009A83AB83BC8380911D0190911E01865E15
:102EE0009D4F20911C01422F50E0253010F044E00E
:102EF00050E0BE016F5F7F4F0E94462E82E090E05F
:102F00000E944F2D182F882351F00E94C40960930E
:102F10001202709313028093140290931502812F72
:102F20002896E3E00C94EF2DA6E0B0E0EAE9F7E1A3
:102F30000C94D12DF62E072F80E090E00E944F2DAB
:102F4000182F882309F469C080910F01482F50E0A1
:102F5000882311F041E050E060911001709111015F
:102F6000665E7D4FCE0106960E94462E4091290254
:102F700050912A0260912B0270912C022FB7F89485
:102F80008091160290911702A0911802B091190237
:102F90002FBF841B950BA60BB70B84369105A1059B
:102FA000B10538F48BE192E00E94000B9E818917F5
:102FB000A1F181E090E00E944F2D8823C9F180911A
:102FC0001701482F50E0863010F045E050E0609146
:102FD000180170911901665E7D4FCE0101960E9425
:102FE000462E8BE192E00E94000B9E81891320C047
:102FF0000E94C4096093290270932A0280932B02D5
:1030000090932C0285E0FE013196A4E2B2E001909B
:103010000D928A95E1F781E00CC085E0EBE1F2E0EA
:10302000DE01119601900D928A95E1F71111EACF18
:1030300080E095E0E4E2F2E0AF2DB02F01900D9238
:103040009A95E1F72696E5E00C94ED2DAAE0B0E024
:10305000ECE2F8E10C94C92D80900F0290901002E0
:1030600081E090E09093100280930F02A12CB12C8C
:10307000E12C6501F12C15C0F80125913491472D03
:103080006F2D8E2D0E94A20C0E5F1F4F739487E050
:103090007812F2CF87E0C80ED11CF3948AE0F816BC
:1030A00039F08601000F111F04501D4F712CE4CF21
:1030B000E39486E4A80EB11C86E0E812DACF1A8207
:1030C00019821C821B821E821D8218861F8288EC38
:1030D00090E09A8789874AE050E061E773E0CE018B
:1030E00001960E94A82E4AE050E06BE773E0CE0103
:1030F00001960E94A82E4AE050E065E873E0CE01F8
:1031000001960E94A82E4AE050E06FE873E0CE01DD
:1031100001960E94A82E9092100280920F022A9689
:10312000EDE00C94E52D80E00E94D90C60E088E28F
:1031300090E00E94842E0E9426180E94C90C81E013
:103140000E94D90C0895282FCB01243070F44AE056
:10315000249F90011124B9016F587C4F4AE050E040
:103160000E94562E80E090E008958FEF9FEF089523
:10317000AAE0B0E0EEEBF8E10C94D42D9C01975559
:103180008F3F910509F070F4BE016F5F7F4F822F72
:103190000E94A318892B31F489859A852A96E2E04A
:1031A0000C94F02D88EC90E0F9CFA0E0B0E0EBEDCE
:1031B000F8E10C94CF2DD62E172FC42FD22F8823B1
:1031C000A9F04093B7020E948F089093C1018093A9
:1031D000C001C77081E001C0880FCA95EAF70E945C
:1031E0006E15CDB7DEB7E7E00C94EB2D8091B702FA
:1031F000481337C08091C0019091C1010E94140A08
:103200007C018D2D912F0E94B818E816F90648F51B
:10321000CD130CC0802F0E947A12D77081E001C0BC
:10322000880FDA95EAF70E947815DBCFC77011E0B6
:10323000812F01C0880FCA95EAF70E94781580E2B5
:103240008D0F883050F48D2F877001C0110F8A9533
:10325000EAF7812F0E946E15DDCF802F0E947A122F
:10326000C0CFC77081E001C0880FCA95EAF7DBCFF5
:10327000A8E0B0E0EEE3F9E10C94CC2D7C01DC0198
:1032800014968C91882309F4A1C161E0C7010E94C2
:103290006E0D8C01F7018581882319F180917202EE
:1032A000909173020097E9F008171907D1F0992758
:1032B00044E0880F991F4A95E1F7FC01E558FD4F5E
:1032C0002081246020838A589D4FDC010D931C933C
:1032D0000E94B1151092BE0261E0C7010E946E0DFE
:1032E0008C01F7018581882309F4BAC0C80197577A
:1032F0008038910508F052C1D02EFFE0F01708F495
:1033000054C18FEF93E00E94662E81114EC109E9EE
:1033100013E0D1103CC08091240190912501A0912F
:103320002601B091270189839A83AB83BC8368010E
:103330003FEFC31AD30AC8010E94662E89831A82FE
:10334000882309F432C1813009F084C0580142E079
:10335000A40EB11CC6010E94662ED82E8A83882333
:1033600009F423C1C5010E94662EC82E8FEF8D0D72
:103370008330D8F4CB82CC2021F0CE0101960E947C
:103380001615580153E0A50EB11C8501D0CF0115CB
:1033900024E0120709F409C1C8010E94662E0F5FDC
:1033A0001F4F8111F4CFDA94B4CF8BEF8D0D8330A2
:1033B00040F5580183E0A80EB11CCB82CC2029F344
:1033C000C5010E94662E8C83882381F08B819C81AD
:1033D0008130AFEF9A0710F0982F8827B6E0DB1600
:1033E00051F0E7E0DE1651F00E941E235801F4E090
:1033F000AF0EB11CCACF0E94DA22F8CF0E94FC2285
:10340000F5CF24E0D212C1CF580134E0A30EB11C95
:10341000C80103960E94662ECC2009F4C6C08823FA
:1034200009F4C3C08150990B4FEF489F9001499F09
:10343000300D11244C2D4150550B240F351F2150B8
:10344000310908F4A2CF8FE99FE00197F1F700C09E
:103450000000F5CFCE0101960E941615560195CFBA
:103460000115A7E51A0708F4B5C00115B8E51B0753
:1034700040F00115EEE71E0709F064C010927102DA
:1034800094C06801F7E5DF1A67E672E08C2D0E94B0
:10349000A318892B21F5C60124E0880F991F2A95CE
:1034A000E1F7FC01EA58FD4F22812130C1F520915E
:1034B000670230916802232B91F0209169023091CC
:1034C0006A02232B61F020916B0230916C024091D3
:1034D0006D0250916E02242B352B232B41F18091EC
:1034E0007102882309F400C1D70115968C918823B5
:1034F00009F45BC08091BA0282720E31110509F4A1
:10350000E6C00833110509F4E5C00831110509F0DA
:103510004CC0882309F4CDC084E391E0B3C02230CD
:10352000F1F620916B0230916C02232BC1F2FC0169
:10353000E558FD4F20812E7F20838A589D4F0E94A1
:10354000B115CDCF809171028111CECFF701858168
:10355000882309F4FDC117FFFBC10E948312C80133
:103560009F779C0140E050E02D833E834F83588736
:10357000CA01B9010E9497130E94DF12D701159664
:103580008C918111D0C10631BCE71B0789F1073747
:10359000ECE71E0709F049C181E02FC10115BEE724
:1035A0001B0771F581E0809371028091BF028770E3
:1035B000882361F0D70115968C91882339F080918A
:1035C000060382FF03C082E00E9443052896EAE0DA
:1035D0000C94E82D80917102811134C0D7011596A9
:1035E0008C918111ECC10631BCE71B0709F0BDC20B
:1035F0008091B8028111C1C289E20E9482081FC075
:1036000080917102882309F468C0C8018B7F813ED4
:103610009105F1F41092B7020631ECE71E0709F0AC
:1036200089C18091BA028A7A91E0811101C090E04B
:103630009093B80281119FC289E20E9469080E949A
:10364000DC0DB3CFC8018B7F813E910509F4EDC03D
:10365000F7018581882309F4A8CF8091BA0282728C
:103660000631110549F108F048CF0131110539F152
:1036700060F40430110591F08DE391E008301105FC
:1036800009F093CF0E94E31390CF0231110509F0A6
:103690008CCF882359F08EE291E0F4CF882319F083
:1036A00088E291E0EFCF8BE291E0ECCF81E391E013
:1036B000E9CF87E391E0E6CF8AE391E0E3CF882387
:1036C00019F081E491E0DECF84E491E0DBCF87E480
:1036D00091E0D8CF8AE491E0D5CFC80197558F3FCC
:1036E000910511F008F06DC0F801FF2784E0EE0F9E
:1036F000FF1F8A95E1F79F012A583D4F6901D701C5
:1037000015968C91E558FD4F908180FB90F9908340
:10371000811121C0F6014485558566857785C601EE
:103720000E940408D60115968C9181FF43C0C60102
:103730000E9494152091720230917302F7018581E5
:103740000217130721F41092730210927202882359
:1037500009F444CFFBCE0E948F08909375028093AA
:103760007402D60112968C9112978F5F12968C93E9
:1037700012978091BE029091BA02892B13968C9376
:1037800013978091B90214968C93149716964D91C5
:103790005C9117971E966D917C91C6010E9404085A
:1037A000F601858181FD0AC0902F812F90937202CE
:1037B00080937302D70115968C91C9CF90E080E079
:1037C000F5CF8091BA028272F801E053FC47E830ED
:1037D000F10508F0BBCEE252F14D0C940F2E882378
:1037E00079F08FEF0E94850CF7018581811112CF4E
:1037F00082E008373CE71307C1F40E949D04A2C091
:1038000081E00E94850CD70115968C91EFCF81E065
:10381000E9CF8111FCCF8FEFF4CF1092B6020E9456
:103820007E0CF70185818111F5CEF7018581C0807D
:10383000D180882309F4E7C1C6010E94430D182FE7
:10384000682FC6010E94AD04B601812F0E94260D8B
:103850000E946506C82E192FD7011596BC901597A2
:103860001696AC90A2949FE0A9228091BF02877027
:10387000882309F1DB2CBB20F9F0812F807F803475
:1038800069F080E28C0D8830B0F0812F807E80322C
:1038900029F4B1E0BC1578F4AA2069F08091060300
:1038A00082FF09C082E00E9443058091BF028770B9
:1038B000DD24D3948111D12CE12FE295EF70103CDF
:1038C00008F002C2F0E0EA51F14D0C940F2E81E0B5
:1038D0008093B6020E947E0CD70115968C918823A6
:1038E00009F4A3CF1092B70225C082E08093B602FC
:1038F0000E947E0CF7018581882309F479CFF2CFED
:1039000083E0E6CF84E08093B6020E947E0CF7014C
:103910008581E5CF85E08093B6020E947E0CD701B9
:1039200015968C91E9CF1092B702C80190578397F2
:1039300008F44CC00737FCE71F0709F020C181E0FD
:103940000E94910443E062E081E00E9418052DCEC0
:10395000F801E851FC47E730F10508F03FCEEE50A2
:10396000F14D0C940F2E06E221EE41EE6AE17CE768
:103970000E94D5181ACE07E225EE45EE6BE17CE7F2
:10398000F7CF06E221EE40EE68E17CE7F1CF07E2F7
:1039900025EE44EE69E17CE7EBCF06E221EE42EE54
:1039A0006CE17CE7E5CF07E225EE46EE6DE17CE7D2
:1039B000DFCF08E221E045EE6EE17CE7D9CF10923F
:1039C000B702C8019057839708F026CE84E090E0B4
:1039D0000E946E2E9093060380930503F801E15038
:1039E000F047E232F10520F4E750F14D0C940F2E30
:1039F00080910503816080930503609105037091B8
:103A0000060384E090E00E94A22E0E942A0ECDCDF3
:103A100080910603886080930603EFCF80910503B1
:103A20008260E9CF809105038460E5CF8091050332
:103A30008860E1CF809106038160EDCF809106031D
:103A40008260E9CF809105038061D5CF8091050325
:103A50008062D1CF809105038064CDCF0E942A0E71
:103A6000809105038068C7CF809105038C60C3CF28
:103A7000809106038360CFCF809105038E7FBBCFFB
:103A800080910603877FC7CF809105038D7FB3CFD9
:103A9000809105038B7FAFCF80910503877FABCFEC
:103AA000809106038E7FB7CF809106038D7FB3CFC1
:103AB000809105038F7E9FCF809105038F7D9BCFE3
:103AC000809105038F7B97CF0E942A0E809105037A
:103AD0008F7791CF80910503837F8DCF80910603EF
:103AE0008C7F99CF8091050382FB992790F921E083
:103AF000922790FB82F990FB83F97DCF809106039A
:103B0000982F909591708E7F892B90FB81F983CFB0
:103B100090910503892F8F7B96FF80646CCF0E9464
:103B20002A0E90910503892F97FB87F9805863CF60
:103B300061E08EE090E00E94842E5FCF60E0F9CFDC
:103B400090910503892F8F7E94FF806154CF9091CF
:103B50000503892F8E7F90FF81604DCF90910603E2
:103B6000892F877F93FF886056CF07372CE712078E
:103B700009F03ECE11CD85E360CD85E33ECD82E0F8
:103B800008374CE7140709F4DBCE0A355CE7150764
:103B9000B1F1D0F401309CE7190779F10330ACE7BB
:103BA0001A0729F10115BCE71B0709F03ECE0E9458
:103BB0002A0E2FEF34E34CE0215030404040E1F733
:103BC00000C000000E94230A0B35ECE71E07C9F075
:103BD0000C35FCE71F0709F028CE8091060382FB15
:103BE000882780F991E089270E94670C1ECE6FEF2D
:103BF0007FEF80E090E00E94A22E0E94510E81E0B3
:103C0000F3CF80E0F1CFC6010E94E404182F1CCE50
:103C1000012F0F70103110F00295007FBB20B9F01A
:103C2000002369F080E28C0D883010F0C11009C0CB
:103C30008091BA02802B8093BA020E94DC0D8C2DF9
:103C400041C08091BE02802B8093BE02F6CF8C2DA6
:103C50000E94D8110023C1F180E28C0D883010F051
:103C6000C11004C0802F0E945F0506C0009580919E
:103C7000BE0280238093BE020E94DC0D25C0012F6E
:103C80000F70107F103211F00295007FCC2051F0A0
:103C9000E1E0CE1609F485C0BB2009F491C0AA204A
:103CA000B9F1CDCF8091060382FD2EC0BB2031F14A
:103CB000002339F08091BA02802B8093BA020E94CF
:103CC000DC0D80E00E942B11DD2009F49BC1809166
:103CD000BF0280FD97C1D70115961C9286958695E7
:103CE00086950E949104C7010E9438198091BF02F5
:103CF0008695869586950E949D0484C180E00E94E9
:103D0000D811002309F3AECFBB2069F1A11004C084
:103D1000802F0E946E15D8CFF1E0AF1210C0109125
:103D2000B902802F8123081779F20E948F0890939F
:103D3000C3028093C202102B1093B902C5CF25E0B5
:103D4000A212C2CF802F0E946E15802F0E94B2084F
:103D50008091BB02902F9823091709F4B5CF802BCF
:103D60008093BB02B1CFA11012C0802F0E947815A2
:103D7000802F0E94B2088091BB02902F9823992334
:103D800009F4A2CF009508230093BB029DCF31E038
:103D9000A3129ACF8091BA028023882309F494CF8A
:103DA000E4CFBB2029F045E04A1508F48DCFB0CF11
:103DB00054E05A1508F488CF802F0E94781584CFDC
:103DC000AA20D1F389E3C81209C09FEFA7EEB3E0A0
:103DD0009150A040B040E1F700C000008C2D0E943F
:103DE000D81172CF812F869586958370882369F0CC
:103DF000813009F069CF8C2D912F9370B11002C0E2
:103E000080E090E00E9443085FCF8C2D912F93704B
:103E1000B11002C080E090E00E941D0855CF6B2DCC
:103E20008C2D0E94F00850CF812F8370811137C0F4
:103E3000B1102AC04C2D429546954770440F440F4F
:103E40002C2D2F70042E01C0220F0A94EAF79C2D0E
:103E50009071992341F08FE090E001C0880F4A955E
:103E6000EAF7982F9095169516951370123091F0E9
:103E7000892F822B133031F08091BC02113039F040
:103E8000292B82230E948B040E9409081DCF822BBC
:103E9000892BF8CF292B8091BC028227F3CFBB203E
:103EA00069F110FFF1CF4C2D429546954770440FB4
:103EB000440F2C2D2F70042E01C0220F0A94EAF714
:103EC0009C2D9071992341F08FE090E001C0880F04
:103ED0004A95EAF7982F909516951695137012301B
:103EE00099F0892F822B133031F08091BD0211306F
:103EF00041F0292B82230E948E04C6CF823020F20B
:103F0000D2CF822B892BF7CF292B8091BD0282271C
:103F1000F2CF1F70BB2039F0812F0E9491048C2DAD
:103F20000E946E15B1CF8C2D0E947815812F0E94B2
:103F30009D04AACFE2EFCE16A9F1EC1588F0F0EFC0
:103F4000CF16D9F021EFC21609F443C0BB2009F403
:103F50007EC0AA2009F478C08C2D0E942B1194CF2A
:103F600033EFC31631F144EFC41679F1B110F1CF3C
:103F7000A1107CC0812F8F71DACFBB2081F054E07B
:103F80005A1508F481CF1F7181E090E0012E01C025
:103F9000880F0A94EAF79091BD028927ACCF85E09B
:103FA000A816EFCF812F8F71B110C1CF0E9491045D
:103FB0006BCF80E0BB2009F49ECF1F7181E0012E02
:103FC00001C0880F0A94EAF796CF8091060382FD1C
:103FD00006C0812F8F71BB2009F4A9CFE7CFBB208A
:103FE00011F18091BF028770843089F41092BF0272
:103FF0001092C1021092C002812F8F710E949D0405
:104000000E94090860E0C7010E946E0DDFCA94E0BB
:104010009A15B0F31F71812F0E94910463E0812FE4
:104020000E949B08EDCFA4E0AA1550F41092BF02A5
:104030001092C1021092C00264E0812F8F71F0CF04
:1040400081E00E944305DCCF812F8F71AFCFAA2082
:1040500009F490CFB9E3CB1209C0EFEFF7EE23E0FC
:10406000E150F0402040E1F700C000008C2D0E949C
:10407000D8110ACFA0E0B0E0E0E4F0E20C94CF2D3C
:1040800080910403803108F049C0809103038823A4
:1040900009F444C0C091C50287E0D82E8091C402C3
:1040A0008C17E1F1EC2EF12CDC9EE0011124FE01D5
:1040B000EA53FD4F84818823B1F191818091FF0201
:1040C000981331C090818091FE0298132CC0858195
:1040D000811129C002811381809100039091010315
:1040E000081B190B60E08EEF92E00E946E0D0E949B
:1040F000B81808171907B8F4809104038F7080610D
:1041000080930403C453DD4F88818F70806188835E
:104110008EEF92E00E9438190E943905CDB7DEB7C4
:10412000E7E00C94EB2DE7012196C770B7CFADE027
:10413000B0E0EDE9F0E20C94C72D8C0186E0F801C7
:10414000DE01189601900D928A95E1F7F801C08082
:104150005180F580A280B380E4808EEF882E82E0CB
:10416000982E80910203811118C0EE2099F0FF2053
:1041700009F44FC1C8010E949D0D882309F449C16B
:1041800087E0F801AEEFB2E001900D928A95E1F779
:104190000E943A20FF24F3945DC0D09003038091E5
:1041A0000003909101033501681A790A60E08EEFEF
:1041B00092E0DD2009F4EBC00E946E0D0E94B81859
:1041C0006816790608F09EC0EE2021F3E090040303
:1041D0009091FF02F8018181FFE0FE1508F45BC0B9
:1041E000981317C09091FE02F8018081981311C0B6
:1041F000F1104BC08E2D8F708061809304038EEF81
:1042000092E00E94381980910403F8018683F12C12
:1042100021C0F1103AC040E0652D8C2D0E94AB0BFF
:1042200040E0652D8C2D0E94AB0BF82E8111EFCF55
:10423000888599850E948E0D292F22952F709034A4
:1042400070F49F702230A0F09923B1F0F8019681AC
:10425000903190F48F2D2D96EFE00C94E32D2A5F92
:104260002F70223068F0C8010E943819FD2CF2CF5F
:10427000992311F0882371F3805E883058F3F3CFCF
:10428000803F40F3815F8230F9CF809104038160E9
:1042900080930403BCCF981315C09091FE02F801DF
:1042A000808198130FC0F1100DC0E682C8010E94F2
:1042B000381987E0F801AEEFB2E001900D928A95CF
:1042C000E1F768CFC8010E949D0D882309F4A1C0C1
:1042D000FF2009F49EC080910403803208F450CF7F
:1042E0008091FE029091FF029A838983BC82AB8207
:1042F000809102038D831E82EF82CE0101960E947F
:1043000038193ECFD0900403FFE0FD1550F08EEF3A
:1043100092E00E94381987E0F40111928A95E9F73A
:1043200076CFEE2009F436CF9091FF02F80181811B
:10433000981311C09091FE02808198130CC0F11067
:104340000AC0D682C8010E94381987E0F401119290
:104350008A95E9F71FCFC8010E949D0D882309F4B3
:1043600058C0FF2009F455C080910403803208F43E
:1043700007CF8091FE029091FF029A838983BC82CD
:10438000AB82809102038D831E82DF82B6CF0E94B2
:104390006E0D0E94B8186816790608F0BCCFEE20A2
:1043A00009F4F8CEFF20A9F19091FF02F801818174
:1043B000981325C09091FE028081981320C08091AF
:1043C000000390910103A81AB90AF8ECAF16B104E2
:1043D00008F06FCF8091040380FD6BCF803108F42B
:1043E00068CFF8018683982F907F903F09F45ECFC5
:1043F000982F907F905F8F70892B868357CFC8014D
:104400000E949D0D8111BCCE809104038160809338
:104410000403C8010E943819BDCEABE1B0E0E3E16E
:10442000F2E20C94D32D4E8B5F8B688F798F8A8F3D
:104430009B8F91111092BE021D8A86E0FE01769636
:10444000DE011F9601900D928A95E1F78091060397
:1044500082FF1FC00E948F082091C0023091C102CC
:10446000821B930B8838934138F08091BF0282FD04
:1044700003C082E00E9443050E948F082091C2027F
:104480003091C302821B930B8838934110F00E9435
:1044900067058B89882329F061E0CE010F960E9481
:1044A0006E0D87E0FE013F96DE01189601900D9299
:1044B0008A95E1F7CE0108960E949720811110C0DD
:1044C00087E0FE013896DE01119601900D928A95E3
:1044D000E1F72091C4024091C5028C8581110BC087
:1044E00017E08091C5029091C40289132EC06B968B
:1044F000E3E00C94EF2D30E0C90101968770992715
:1045000050E08417950771F40E942A0E1092C4029D
:104510001092C50287E0EEEFF2E0DF011D928A956E
:10452000E9F7DECF97E0929FD001939FB00D112461
:10453000AA53BD4FFE01319601900D929A95E1F775
:104540008093C4020E943905CBCF189FC00111246B
:104550008A539D4F0E949720882349F28091C5027B
:1045600090E00196877099278093C502BACFA6E0A4
:10457000B0E0EDEBF2E20C94D22D0E948F088C019A
:1045800080913702909138028017910779F0198253
:104590001A820E948F08BC0149815A8180E090E014
:1045A0000E940D2210933802009337022696E4E011
:1045B0000C94EE2DA6E0B0E0E0EEF2E20C94D42DE7
:1045C0009093340280933302811520E2920730F4F5
:1045D0000E94C2112696E2E00C94F02D80EF8983B0
:1045E0008A830E948F088160BC0149815A8181E0E1
:1045F00091E00E940D22EECFA6E0B0E0E2E0F3E20F
:104600000C94D42D9093340280933302811520E2D0
:10461000920730F40E9432122696E2E00C94F02DBC
:1046200080EF89838A830E948F088160BC01498161
:104630005A8181E090E00E940D22EECFCF93DF936C
:10464000D82FC92F0E94DA228D2F9C2F0E94FC2286
:10465000DF91CF9108950F931F93CF93DF938C0138
:10466000862F67E672E00E94A318892BB1F4C091EF
:104670006702D0916802209781F0F801828183302F
:1046800051F4CE010E941E23CE010E941E23CE01B2
:104690000E941E2302C08430D0F7DF91CF911F917A
:1046A0000F9108950F931F93CF93DF938C01EB012C
:1046B00067E672E08C2F0E94A318892B09F05AC07C
:1046C000FE01FF27D80112968C911297E252FE4FFD
:1046D0008130A9F415968C9182FD51C080FF4FC0A6
:1046E00082E080838091690290916A020097B9F418
:1046F00080916702909168020097E1F110C08230CA
:10470000B9F515968C9182FD28C080FD0BC083E021
:10471000808380916B0290916C02009701F10E945E
:10472000DA2228C084E0808380916D0290916E022D
:104730000097A9F78091670290916802009711F1A4
:104740000E941E238091690290916A02009739F7B6
:104750008091670290916802E2CF85E0808380912A
:10476000670290916802009729F00E941E23F0CF03
:1047700086E08083DF91CF911F910F91089581E0B2
:104780008083B6CF8091690290916A02B5CF0F9372
:104790001F93CF93DF938C01EB0167E672E08C2FC0
:1047A0000E94A318892B71F4DD27C252DE4F888145
:1047B000F801128218828330F1F048F4813059F008
:1047C000823081F0DF91CF911F910F910895843055
:1047D000B9F08530B9F7809167029091680200972F
:1047E00089F306C08091690290916A02009799F35B
:1047F0000E94FC22E7CF80916B0290916C02F6CF71
:1048000080916D0290916E02009791F7209167025E
:10481000309168028091690290916A0221153105F8
:10482000F1F2009729F7C901E3CFCDB7DEB7AE9714
:104830000FB6F894DEBF0FBECDBF85B7806885BFC9
:1048400085B7806885BF84B7877F84BF0FB6F8942B
:10485000A89580916000886180936000109260004C
:104860000FBE80E890E00FB6F894809361009093BB
:1048700061000FBE8EE797E09093AD018093AC018D
:104880000E9499070E94E10A0E94500B8091E20069
:1048900084608093E200789480911102882399F0DB
:1048A0008091E9001091EC001795112717958F70F2
:1048B000182B1092E9008091E80083FD0E94670E9A
:1048C0001F701093E90082E084BD93E095BD9AEFDC
:1048D00097BD80936E0010922F02109230021092BA
:1048E0003102109232020E94C30D811102C00E9457
:1048F00093188091D80080618093D8002AE12A958E
:10490000F1F700C08091D90080FDE0C00E94E10A6B
:104910001092110210922D0210922E02109201019B
:10492000809101018091010190E0811101C095E029
:104930009093ED0185E0891B8093EC0105E611E081
:10494000AAE6EA2EA1E0FA2ED8018D918D018F3FC3
:1049500011F00E948007E016F106B1F70AE611E0B7
:10496000F1E7EF2EF1E0FF2EF80181918F018F3FEB
:1049700011F00E948007E016F106B1F78AE0E5E049
:10498000F2E0DF01282F1D922A95E9F7E2EEF1E02F
:10499000DF011D928A95E9F780E090E00E946E2E7B
:1049A000863E9E4F21F40E94C30D811168C066EEC1
:1049B0007EEF80E090E00E94A22E60E082E090E036
:1049C0000E94842E81E08093BC0261E083E090E04D
:1049D0000E94842E60E074E184E090E00E94A22EA8
:1049E00060E086E090E00E94842E60E087E090E046
:1049F0000E94842E40E050E0BA0188E090E00E94DE
:104A0000962E60E084E290E00E94842E60E087E1D0
:104A100090E00E94842E60E08CE090E00E94842E62
:104A200060E08DE090E00E94842E19821A821B8241
:104A30001C821D821E821F82188648E050E068E1B9
:104A400070E0CE0101960E94742E40E050E0BA0161
:104A500080E290E00E94962E80E00E94D90C0E9495
:104A6000931840E050E0BA018FE090E00E94962E4B
:104A700040E050E0BA0183E190E00E94962E82E08F
:104A800090E00E94662E8093F10184E090E00E9405
:104A90006E2E90930603809305030E94DB15EFEFC3
:104AA000F6E721E0E150F0402040E1F700C00000CF
:104AB0000E94DB158091050280FF12C06FEF7FEF2F
:104AC00080E090E00E94A22E0E94230A81E0809361
:104AD0002D0280932E02809301010E94612C20CF31
:104AE00083E090E00E94662E0E948B048CE090E0B0
:104AF0000E94662E8093B602843009F476C081301D
:104B000009F477C01092EE0184E08093B6028091A0
:104B10002D02811102C00E94642C82E091E09093EA
:104B20003A028093390278E1272E312CEFE04E2EA5
:104B3000E2E05E2E80911102853049F480911102ED
:104B4000853009F458C00E942A0E0E9409080E946C
:104B5000DB1502EF11E065E0E62E62E0F62E2CEFA9
:104B600031E0D701F80191918D912E173F0709F49B
:104B700090C09817C1F380902D02D12CD701CD9011
:104B80007D01F80191908F019C1441F19C24B12C7E
:104B9000AA24A3948A2D89218823C1F08820B1F00A
:104BA000B982DA820E948F089C838B83F1E0FD83B7
:104BB00091E08A2D8C21811101C090E09E83498172
:104BC0005A816B817C818D810E940D22B394AA0C45
:104BD00027E0B212DFCFF8013197C082D3943AE0D8
:104BE000D312CCCF0E94E10958C080E08093EE013F
:104BF0008ECF81E0FBCF80911102843011F11092B1
:104C0000EF0130E40FB6F894A895209260000FBE33
:104C10003093600083B7817F846083BF83B78160F6
:104C200083BF7894889583B78E7F83BF0FB6F8943F
:104C3000A895809160008861809360001092600068
:104C40000FBE8091F001882309F478CF0E94DB1514
:104C5000E5E0F2E08191811104C04E165F06D1F7C4
:104C60006DCF80E189BD82E189BD09B400FEFDCF31
:104C70008091D8008F7D8093D8008091E000826081
:104C80008093E0008091E00081FDFCCF0E942A0E1D
:104C900055CF981370CF0E94B72280912D028823A0
:104CA00041F1E0907202F0907302E114F10409F115
:104CB00080917402909175020E94140A8C01C701C0
:104CC0000E94B81880179107A0F480917202909109
:104CD0007302992754E0880F991F5A95E1F7FC0158
:104CE000E558FD4F208122FD04C08A589D4F0E9447
:104CF000B11586E0E1E6F2E0DE01119601900D9239
:104D00008A95E1F7F09062020091630210916402CB
:104D1000D0906502E09066021092630210926402E5
:104D20001092650210926602812F802B882379F001
:104D30008091FE019091FF010E94140A9C018091D4
:104D40005F0281115CC02B30310508F05EC08D2DF3
:104D50008E29882379F08091FC019091FD010E94B9
:104D6000140A9C0180915E02811187C02B303105AD
:104D700008F089C080916202F81216C08091630227
:104D8000882311F0801310C090916402992311F0D0
:104D900091130AC020916602211106C0209165027C
:104DA000211102C0892B81110E94C80886E0FE01F2
:104DB0003196A1E6B2E001900D928A95E1F70E944A
:104DC000090890910002891721F0809300020E9447
:104DD000C40980911102843009F0ACCE83E0809345
:104DE000E9008091E80082FFA5CE8091E80085FD72
:104DF00084C08091E8008B778093E8009BCE2531BA
:104E0000310508F4A4CF8F3F19F08F5F80935F02C4
:104E1000002359F00E94BF079FEF10160CF491E099
:104E2000899F802D112480936302112359F00E94E1
:104E3000BF0791E011160CF09FEF899F802D112480
:104E40008093640280916302882309F480CFC0902C
:104E50006402CC2009F47BCF0E94B107811101C00C
:104E600081E0809363028C2D0E94B107882319F0A2
:104E7000809364026CCF81E0FBCF2135310508F4CB
:104E800079CF8F3F19F08F5F80935E02DD2059F05C
:104E90000E94DF079FEF1D140CF491E0899F802D85
:104EA000112480936502EE2059F00E94DF0791E003
:104EB0001E140CF09FEF899F802D112480936602B1
:104EC00080916502882309F455CFE0906602EE20B8
:104ED00009F450CF0E94B107811101C081E0809395
:104EE00065028E2D0E94B107882319F08093660217
:104EF00041CF91E0909366023DCF0E94B00A40E21C
:104F0000E42EF12C8E010F5F1F4F882361F18091F9
:104F1000E8008B778093E80000913502109136020B
:104F2000E9810115110569F1EE3F09F04EC08A8152
:104F3000833020F08550833008F047C0EA81EE309E
:104F400008F043C0F0E0E55EF04D0C940F2E809128
:104F5000F100D8018C93B1E0EB1AF108E114F104EF
:104F6000B1F20F5F1F4F8091E80085FDF0CF809177
:104F7000E8008B778093E8000E94B00A882399F3B9
:104F8000C6CFE43150F4EE2351F0E150E33138F470
:104F9000F0E0E75DF04D0C940F2EEE3F79F28FEFCD
:104FA000898313C01A8289E08B830FC08A81823083
:104FB000A9F08330E1F0813091F70E94C4090E948A
:104FC000152E6B837C838D839E8340E250E0BE016F
:104FD0006F5F7F4F82E00E94CA0BACCD88E290E009
:104FE0000E94662E1B821C821D828E83EECF8091D2
:104FF0000F0290911002892B41F38AE0E5E0F2E084
:10500000DE01139601900D928A95E1F7DECF8A8139
:10501000823029F68B819C81AD81BE818BA79CA7B4
:10502000ADA7BEA7BC01CD010E94152E88E290E07D
:105030000E94842ECACF4C816B818A810E94F70C1A
:105040009827892798279E838D83BFCF2D813E8106
:105050003227232732274C816B818A810E94A20C40
:10506000B4CF0E942618B1CF80E18A83AECF1A82D6
:1050700087E69ACF8C81082F10E08D3108F0A5CFFC
:10508000CA80DB80DC24CD24DC240C0D1D1D7E01B8
:1050900095E0E90EF11CC016D10609F496CF80E028
:1050A000A7E6CA16D10428F4C60187569C4F0E9471
:1050B000662EF70181937F01FFEFCF1ADF0AEBCF56
:1050C00080910F0290911002892B09F47ECF8C8180
:1050D000E82EF12C8D3108F078CF0A811B81102742
:1050E000012710279E012F5F3F4F6901E20EF31E3B
:1050F000CE14DF0409F469CF0736110540F4D60158
:1051000014966C91C80187569C4F0E94842E0F5FA5
:105110001F4FBFEFCB1ADB0AEBCF0E94C90C55CF54
:1051200086E0A3CF8C81082F10E08D3108F04DCFA1
:10513000CA80DB80DC24CD24DC240C0D1D1D7E0107
:10514000E5E0EE0EF11CC016D10609F43ECF80E07A
:10515000F8E4CF16F3E0DF0620F4C60189960E943A
:10516000662ED7018D937D01BFEFCB1ADB0AEBCF03
:105170008C81E82EF12C8D3108F027CF0A811B811C
:105180001027012710270834E3E01E0708F01DCF81
:1051900088E493E0801B910B8E159F0508F415CFD2
:1051A00080910F0290911002892B09F03FC04801B5
:1051B000F9E28F0E911C680121E0C222DD24C114A6
:1051C000D10469F0C80188960E94662E9D818927C6
:1051D0009827892781159C4711F48FEF8D83C7018C
:1051E000800F911F570180FF17C081E0A81AB108F6
:1051F00035E0632E712C6C0E7D1E6A0C7B1CC40185
:105200008E0D9F1D0E94662ED3019C9181159C4797
:1052100019F48FEFF3018083E1E0F0E0EC0FFD1F64
:10522000EC0DFD1D2FEFCA14DB0430F0FE013196AA
:105230006F01EE0EFF1E1CC09481858181159C4775
:1052400011F42483258382E0C80ED11C3296EBCF63
:10525000083493E0190738F4D60114966C91C8010C
:1052600089960E94842E0F5F1F4FBFEFCB1ADB0A77
:10527000CE14DF0469F7A9CE80910F02909110023D
:10528000892B09F4A2CE40E250E0BE016F5F7F4F50
:1052900082E00E94CA0B3FEF81EE94E031508040E3
:1052A0009040E1F700C000000FCC88E0EDE4F1E0B1
:1052B000DE01919601900D928A95E1F7FE013296FA
:1052C0008FE1DF011D928A95E9F786E0898388E006
:1052D0007F96DE01159696CE8CE3898382E08A83E1
:1052E0001B821C8272CE8B819C81092E000CAA0B22
:1052F000BB0B25E0880F991FAA1FBB1F2A95D1F76A
:10530000AC01BD01405E5F4F6F4F7F4F803EEFEFBE
:105310009E07AE07BE0708F058CE8C33F2E09F0719
:10532000A105B10508F051CE4D3322E052076105C9
:10533000710520F04CE352E060E070E0481B590B2F
:10534000BC016C5B794FCE0101960E94302E3DCEA0
:105350004AE150E06FEF70E0CE0107960E944F2EB9
:1053600080910F0289830A831B821C821D8281E047
:105370003CCE81E090E0909336028093350282E348
:1053800090E090930402809303020E948F08909310
:1053900002028093010219CE012B51F110910502F6
:1053A00080910102909102020E94140A85369105B3
:1053B00040F111FF26C010FF24C00E948F08909377
:1053C00002028093010280910302909104020197EE
:1053D0009093040280930302892B51F410923602B9
:1053E0001092350281E090E09093100280930F02BA
:1053F00080910F028983809135028A838091030214
:10540000D3CD82E390E09093040280930302F0CF27
:105410001092100210920F02D8CD40E250E06FEFD0
:1054200070E0CE0101960E944F2ECFCD8B8181304E
:1054300069F0823011F18111C8CDFE0132968FE101
:10544000DF011D928A95E9F784E0AACD8C819AE06C
:10545000F92E8E010F5D1F4FF8012F2D11922A9505
:10546000E9F7B8010E94A3188983F801DE011296BA
:1054700001900D92FA94E1F7A8CD6C818AE0FE01CB
:105480003596DE01919601900D928A95E1F789A1FA
:105490009AA181153CE7930741F420910F023091C6
:1054A0001002232B11F480E090E09AA389A38BA132
:1054B0009CA18115ACE79A0741F420910F0230912D
:1054C0001002232B11F480E090E09CA38BA38DA10C
:1054D0009EA18115BCE79B0741F420910F023091FA
:1054E0001002232B11F480E090E09EA38DA38FA1E6
:1054F00098A58115ECE79E0741F420910F023091A9
:105500001002232B11F480E090E098A78FA38FEF77
:10551000643068F4FAE06F9FB00111246F587C4F3B
:105520004AE050E0CE0181960E94A82E80E0898357
:105530000E9499074ACD1F921FB61F9211248F9384
:105540009F93AF93BF938091EF01811113C080911E
:10555000160290911702A0911802B091190241967B
:10556000A11DB11D8093160290931702A0931802FB
:10557000B0931902BF91AF919F918F911F901FBE61
:105580001F90189578941F921FB61F9211248F9325
:105590009F93AF93BF938091160290911702A091B1
:1055A0001802B09119020196A11DB11D8093160237
:1055B00090931702A0931802B0931902BF91AF9174
:1055C0009F918F911F901FBE1F9018951F920F9251
:1055D0000FB60F9211242F933F934F935F936F93C6
:1055E0007F938F939F93AF93BF93EF93FF9380919C
:1055F000E10082FF09C08091E20082FF05C0809136
:10560000E1008B7F8093E1008091DA0080FF24C06D
:105610008091D80080FF20C08091DA008E7F809337
:10562000DA008091D90080FF9BC080E189BD82E1D2
:1056300089BD09B400FEFDCF81E080931102809105
:10564000C601811109C00E94E10A0E94500B80919D
:10565000E20084608093E2008091E10080FF17C047
:105660008091E20080FF13C08091E2008E7F8093E2
:10567000E2008091E20080618093E2008091D80096
:1056800080628093D80019BC85E0809311028091DC
:10569000E10084FF29C08091E20084FF25C080E101
:1056A00089BD82E189BD09B400FEFDCF8091D8009B
:1056B0008F7D8093D8008091E1008F7E8093E10000
:1056C0008091E2008F7E8093E2008091E200816011
:1056D0008093E2008091C501882309F447C084E0EB
:1056E00080931102809111028091E10083FF27C015
:1056F0008091E20083FF23C08091E100877F809347
:10570000E10082E0809311021092C5018091E100D6
:105710008E7F8093E1008091E2008E7F8093E20093
:105720008091E20080618093E20042E060E080E0EE
:105730000E94190B8091F00088608093F000FF9127
:10574000EF91BF91AF919F918F917F916F915F91F9
:105750004F913F912F910F900FBE0F901F90189572
:1057600019BC109211021092C60176CF8091E3000D
:1057700087FF02C083E0B4CF81E0B2CF1F920F92C7
:105780000FB60F921124FF920F931F932F933F9305
:105790004F935F936F937F938F939F93AF93BF9339
:1057A000CF93DF93EF93FF9309EE10E0F801808130
:1057B000C091EC00C795CC27C7958F70FC2EF82AB6
:1057C0001082C0EFD0E08881877F888378940E9420
:1057D000670EF8011082888188608883CF2DCF7092
:1057E000C083FF91EF91DF91CF91BF91AF919F91D6
:1057F0008F917F916F915F914F913F912F911F9169
:105800000F91FF900F900FBE0F901F9018958EE193
:10581000489B03C081508111FBCF489BFECF089568
:10582000589880E28A95F1F7589A0895FC012BE088
:105830002A95F1F728E090E080E031E040E14A95D8
:10584000F1F7880F489B02C08160932742E04A9598
:10585000F1F7000040E14A95F1F721502111EECF18
:1058600020E12A95F1F729B132E03A95F1F70000ED
:1058700040E14A95F1F7217092272081920F9083A1
:105880000895A1E0B0E0E7E4FCE20C94D02D198289
:105890008C017C01E60EF11C0E151F0541F481E020
:1058A0009981911180E02196E6E00C94EC2D0E9404
:1058B000072CCE0101960E94162CF80181938F01CE
:1058C000EBCF509A589A08955098589AE89AE9E67A
:1058D000F0E080818C7F808308956150770B91E0A8
:1058E00001C0990F6A95EAF7692F90E021E06111F4
:1058F00008C0992399F0589A80E28A95F1F7589850
:105900000895362F3823332339F0589A922730E2FE
:105910003A95F1F76695EBCF5898F9CF5898ECCFB8
:10592000FF920F931F93CF93DF93EC018C01060F2F
:10593000111DC017D10729F4CDB7DEB7E5E00C94EF
:10594000ED2DF9900E94102C68E08F2D0E946D2C97
:10595000F0CF1F920F920FB60F9211240F931F9347
:105960002F933F934F935F936F937F938F939F9367
:10597000AF93BF93EF93FF93CF93DF930F92CDB786
:10598000DEB719820E94072CCE0101960E94162CC8
:10599000082F069506950695982F92959570202FBD
:1059A0002570920F292F237096959695920F982720
:1059B00097708981892B81115CC0043008F059C02F
:1059C00080E18A95F1F7589A509A82E08A95F1F72A
:1059D00000C0589888E0089F80011124D801A45F76
:1059E000BE4F1696ED91FC9117973097A9F06091F4
:1059F00073017091740114962D913C911597260FA7
:105A0000371F11968D919C911297680F791F1396ED
:105A10004C9113978C910995F801E45FFE4F6381D7
:105A2000662351F020917301309174018481958136
:105A3000820F931F0E94902C0E94102C80E18A9567
:105A4000F1F758985098589A80E18A95F1F7F80143
:105A5000E45FFE4F6081662351F020917301309125
:105A6000740181819281820F931F0E94412C0E94B8
:105A7000072C0F90DF91CF91FF91EF91BF91AF91E4
:105A80009F918F917F916F915F914F913F912F9156
:105A90001F910F910F900FBE0F901F9018950F93AD
:105AA0001F93CF93DF938C0104970CF065C0F8949B
:105AB000509A589885E08A95F1F70000C02FC69556
:105AC000C570802F8570C80F8C2F8370C695C695C2
:105AD00093E0000F111F9A95E1F7C80FC8018C2BB6
